{
  "_format": "hh-sol-artifact-1",
  "contractName": "BotBot",
  "sourceName": "contracts/BotBot.sol",
  "abi": [
    {
      "inputs": [
        {
          "internalType": "address",
          "name": "_oracleAddress",
          "type": "address"
        }
      ],
      "stateMutability": "nonpayable",
      "type": "constructor"
    },
    {
      "inputs": [],
      "name": "ECDSAInvalidSignature",
      "type": "error"
    },
    {
      "inputs": [
        {
          "internalType": "uint256",
          "name": "length",
          "type": "uint256"
        }
      ],
      "name": "ECDSAInvalidSignatureLength",
      "type": "error"
    },
    {
      "inputs": [
        {
          "internalType": "bytes32",
          "name": "s",
          "type": "bytes32"
        }
      ],
      "name": "ECDSAInvalidSignatureS",
      "type": "error"
    },
    {
      "inputs": [],
      "name": "InvalidShortString",
      "type": "error"
    },
    {
      "inputs": [
        {
          "internalType": "string",
          "name": "str",
          "type": "string"
        }
      ],
      "name": "StringTooLong",
      "type": "error"
    },
    {
      "anonymous": false,
      "inputs": [],
      "name": "EIP712DomainChanged",
      "type": "event"
    },
    {
      "anonymous": false,
      "inputs": [
        {
          "indexed": true,
          "internalType": "uint256",
          "name": "roomId",
          "type": "uint256"
        },
        {
          "indexed": false,
          "internalType": "address",
          "name": "player",
          "type": "address"
        }
      ],
      "name": "PlayerJoined",
      "type": "event"
    },
    {
      "anonymous": false,
      "inputs": [
        {
          "indexed": true,
          "internalType": "uint256",
          "name": "roomId",
          "type": "uint256"
        },
        {
          "indexed": false,
          "internalType": "address[]",
          "name": "refundedPlayers",
          "type": "address[]"
        }
      ],
      "name": "RoomCancelled",
      "type": "event"
    },
    {
      "anonymous": false,
      "inputs": [
        {
          "indexed": true,
          "internalType": "uint256",
          "name": "roomId",
          "type": "uint256"
        },
        {
          "indexed": false,
          "internalType": "enum BotBot.RoomType",
          "name": "roomType",
          "type": "uint8"
        },
        {
          "indexed": false,
          "internalType": "uint256",
          "name": "stakeAmount",
          "type": "uint256"
        }
      ],
      "name": "RoomCreated",
      "type": "event"
    },
    {
      "anonymous": false,
      "inputs": [
        {
          "indexed": true,
          "internalType": "uint256",
          "name": "roomId",
          "type": "uint256"
        },
        {
          "indexed": false,
          "internalType": "address[]",
          "name": "winners",
          "type": "address[]"
        },
        {
          "indexed": false,
          "internalType": "uint256",
          "name": "payoutPerWinner",
          "type": "uint256"
        }
      ],
      "name": "RoomResolved",
      "type": "event"
    },
    {
      "anonymous": false,
      "inputs": [
        {
          "indexed": true,
          "internalType": "uint256",
          "name": "roomId",
          "type": "uint256"
        },
        {
          "indexed": false,
          "internalType": "enum BotBot.RoomState",
          "name": "newState",
          "type": "uint8"
        }
      ],
      "name": "RoomStateChanged",
      "type": "event"
    },
    {
      "anonymous": false,
      "inputs": [
        {
          "indexed": true,
          "internalType": "uint256",
          "name": "roomId",
          "type": "uint256"
        },
        {
          "indexed": false,
          "internalType": "address",
          "name": "player",
          "type": "address"
        }
      ],
      "name": "VoteCommitted",
      "type": "event"
    },
    {
      "anonymous": false,
      "inputs": [
        {
          "indexed": true,
          "internalType": "uint256",
          "name": "roomId",
          "type": "uint256"
        },
        {
          "indexed": false,
          "internalType": "address",
          "name": "player",
          "type": "address"
        },
        {
          "indexed": false,
          "internalType": "address",
          "name": "votedFor",
          "type": "address"
        }
      ],
      "name": "VoteRevealed",
      "type": "event"
    },
    {
      "inputs": [
        {
          "internalType": "uint256",
          "name": "_roomId",
          "type": "uint256"
        }
      ],
      "name": "cancelRoom",
      "outputs": [],
      "stateMutability": "nonpayable",
      "type": "function"
    },
    {
      "inputs": [],
      "name": "claimRewards",
      "outputs": [],
      "stateMutability": "nonpayable",
      "type": "function"
    },
    {
      "inputs": [
        {
          "internalType": "uint256",
          "name": "_roomId",
          "type": "uint256"
        },
        {
          "internalType": "bytes32",
          "name": "_commitHash",
          "type": "bytes32"
        }
      ],
      "name": "commitVote",
      "outputs": [],
      "stateMutability": "nonpayable",
      "type": "function"
    },
    {
      "inputs": [
        {
          "internalType": "uint256",
          "name": "",
          "type": "uint256"
        },
        {
          "internalType": "address",
          "name": "",
          "type": "address"
        }
      ],
      "name": "commits",
      "outputs": [
        {
          "internalType": "bytes32",
          "name": "",
          "type": "bytes32"
        }
      ],
      "stateMutability": "view",
      "type": "function"
    },
    {
      "inputs": [
        {
          "internalType": "enum BotBot.RoomType",
          "name": "_roomType",
          "type": "uint8"
        },
        {
          "internalType": "uint256",
          "name": "_stakeAmount",
          "type": "uint256"
        },
        {
          "internalType": "uint256",
          "name": "_chatDuration",
          "type": "uint256"
        },
        {
          "internalType": "uint256",
          "name": "_voteDuration",
          "type": "uint256"
        },
        {
          "internalType": "uint256",
          "name": "_revealDuration",
          "type": "uint256"
        }
      ],
      "name": "createRoom",
      "outputs": [
        {
          "internalType": "uint256",
          "name": "",
          "type": "uint256"
        }
      ],
      "stateMutability": "nonpayable",
      "type": "function"
    },
    {
      "inputs": [],
      "name": "eip712Domain",
      "outputs": [
        {
          "internalType": "bytes1",
          "name": "fields",
          "type": "bytes1"
        },
        {
          "internalType": "string",
          "name": "name",
          "type": "string"
        },
        {
          "internalType": "string",
          "name": "version",
          "type": "string"
        },
        {
          "internalType": "uint256",
          "name": "chainId",
          "type": "uint256"
        },
        {
          "internalType": "address",
          "name": "verifyingContract",
          "type": "address"
        },
        {
          "internalType": "bytes32",
          "name": "salt",
          "type": "bytes32"
        },
        {
          "internalType": "uint256[]",
          "name": "extensions",
          "type": "uint256[]"
        }
      ],
      "stateMutability": "view",
      "type": "function"
    },
    {
      "inputs": [
        {
          "internalType": "uint256",
          "name": "_roomId",
          "type": "uint256"
        }
      ],
      "name": "getHumanPlayers",
      "outputs": [
        {
          "internalType": "address[]",
          "name": "",
          "type": "address[]"
        }
      ],
      "stateMutability": "view",
      "type": "function"
    },
    {
      "inputs": [
        {
          "internalType": "uint256",
          "name": "",
          "type": "uint256"
        },
        {
          "internalType": "address",
          "name": "",
          "type": "address"
        }
      ],
      "name": "hasCommitted",
      "outputs": [
        {
          "internalType": "bool",
          "name": "",
          "type": "bool"
        }
      ],
      "stateMutability": "view",
      "type": "function"
    },
    {
      "inputs": [
        {
          "internalType": "uint256",
          "name": "",
          "type": "uint256"
        },
        {
          "internalType": "address",
          "name": "",
          "type": "address"
        }
      ],
      "name": "hasRevealed",
      "outputs": [
        {
          "internalType": "bool",
          "name": "",
          "type": "bool"
        }
      ],
      "stateMutability": "view",
      "type": "function"
    },
    {
      "inputs": [
        {
          "internalType": "uint256",
          "name": "_roomId",
          "type": "uint256"
        }
      ],
      "name": "joinRoom",
      "outputs": [],
      "stateMutability": "payable",
      "type": "function"
    },
    {
      "inputs": [],
      "name": "nextRoomId",
      "outputs": [
        {
          "internalType": "uint256",
          "name": "",
          "type": "uint256"
        }
      ],
      "stateMutability": "view",
      "type": "function"
    },
    {
      "inputs": [],
      "name": "oracleAddress",
      "outputs": [
        {
          "internalType": "address",
          "name": "",
          "type": "address"
        }
      ],
      "stateMutability": "view",
      "type": "function"
    },
    {
      "inputs": [],
      "name": "owner",
      "outputs": [
        {
          "internalType": "address",
          "name": "",
          "type": "address"
        }
      ],
      "stateMutability": "view",
      "type": "function"
    },
    {
      "inputs": [
        {
          "internalType": "address",
          "name": "",
          "type": "address"
        }
      ],
      "name": "pendingWithdrawals",
      "outputs": [
        {
          "internalType": "uint256",
          "name": "",
          "type": "uint256"
        }
      ],
      "stateMutability": "view",
      "type": "function"
    },
    {
      "inputs": [
        {
          "internalType": "uint256",
          "name": "_roomId",
          "type": "uint256"
        },
        {
          "internalType": "address",
          "name": "_aiAddress",
          "type": "address"
        },
        {
          "internalType": "bytes32",
          "name": "_salt",
          "type": "bytes32"
        },
        {
          "internalType": "bytes",
          "name": "_oracleSignature",
          "type": "bytes"
        }
      ],
      "name": "resolveRoom",
      "outputs": [],
      "stateMutability": "nonpayable",
      "type": "function"
    },
    {
      "inputs": [
        {
          "internalType": "uint256",
          "name": "_roomId",
          "type": "uint256"
        },
        {
          "internalType": "address",
          "name": "_votedFor",
          "type": "address"
        },
        {
          "internalType": "string",
          "name": "_salt",
          "type": "string"
        }
      ],
      "name": "revealVote",
      "outputs": [],
      "stateMutability": "nonpayable",
      "type": "function"
    },
    {
      "inputs": [
        {
          "internalType": "uint256",
          "name": "",
          "type": "uint256"
        },
        {
          "internalType": "address",
          "name": "",
          "type": "address"
        }
      ],
      "name": "reveals",
      "outputs": [
        {
          "internalType": "address",
          "name": "",
          "type": "address"
        }
      ],
      "stateMutability": "view",
      "type": "function"
    },
    {
      "inputs": [
        {
          "internalType": "uint256",
          "name": "",
          "type": "uint256"
        }
      ],
      "name": "rooms",
      "outputs": [
        {
          "internalType": "uint256",
          "name": "id",
          "type": "uint256"
        },
        {
          "internalType": "enum BotBot.RoomType",
          "name": "roomType",
          "type": "uint8"
        },
        {
          "internalType": "uint256",
          "name": "stakeAmount",
          "type": "uint256"
        },
        {
          "internalType": "uint256",
          "name": "chatDuration",
          "type": "uint256"
        },
        {
          "internalType": "uint256",
          "name": "voteDuration",
          "type": "uint256"
        },
        {
          "internalType": "uint256",
          "name": "revealDuration",
          "type": "uint256"
        },
        {
          "internalType": "bytes32",
          "name": "aiCommitment",
          "type": "bytes32"
        },
        {
          "internalType": "enum BotBot.RoomState",
          "name": "state",
          "type": "uint8"
        },
        {
          "internalType": "uint256",
          "name": "phaseEndTime",
          "type": "uint256"
        },
        {
          "internalType": "uint256",
          "name": "pot",
          "type": "uint256"
        }
      ],
      "stateMutability": "view",
      "type": "function"
    },
    {
      "inputs": [
        {
          "internalType": "address",
          "name": "_newOracle",
          "type": "address"
        }
      ],
      "name": "setOracleAddress",
      "outputs": [],
      "stateMutability": "nonpayable",
      "type": "function"
    },
    {
      "inputs": [
        {
          "internalType": "uint256",
          "name": "_roomId",
          "type": "uint256"
        },
        {
          "internalType": "bytes32",
          "name": "_aiCommitment",
          "type": "bytes32"
        }
      ],
      "name": "startGame",
      "outputs": [],
      "stateMutability": "nonpayable",
      "type": "function"
    },
    {
      "inputs": [
        {
          "internalType": "uint256",
          "name": "_roomId",
          "type": "uint256"
        }
      ],
      "name": "startRevealing",
      "outputs": [],
      "stateMutability": "nonpayable",
      "type": "function"
    },
    {
      "inputs": [
        {
          "internalType": "uint256",
          "name": "_roomId",
          "type": "uint256"
        }
      ],
      "name": "startVoting",
      "outputs": [],
      "stateMutability": "nonpayable",
      "type": "function"
    }
  ],
  "bytecode": "0x61016060405234801562000011575f80fd5b5060405162004cd338038062004cd3833981810160405281019062000037919062000362565b6040518060400160405280600681526020017f426f74426f7400000000000000000000000000000000000000000000000000008152506040518060400160405280600181526020017f3100000000000000000000000000000000000000000000000000000000000000815250620000b85f83620001d960201b90919060201c565b6101208181525050620000d6600182620001d960201b90919060201c565b6101408181525050818051906020012060e08181525050808051906020012061010081815250504660a08181525050620001156200022e60201b60201c565b608081815250503073ffffffffffffffffffffffffffffffffffffffff1660c08173ffffffffffffffffffffffffffffffffffffffff168152505050508060025f6101000a81548173ffffffffffffffffffffffffffffffffffffffff021916908373ffffffffffffffffffffffffffffffffffffffff1602179055503360035f6101000a81548173ffffffffffffffffffffffffffffffffffffffff021916908373ffffffffffffffffffffffffffffffffffffffff16021790555050620008bb565b5f602083511015620001fe57620001f6836200028a60201b60201c565b905062000228565b826200021083620002f460201b60201c565b5f019081620002209190620005f6565b5060ff5f1b90505b92915050565b5f7f8b73c3c69bb8fe3d512ecc4cf759cc79239f7b179b0ffacaa9a75d522b39400f60e0516101005146306040516020016200026f95949392919062000716565b60405160208183030381529060405280519060200120905090565b5f80829050601f81511115620002d957826040517f305a27a9000000000000000000000000000000000000000000000000000000008152600401620002d09190620007fb565b60405180910390fd5b805181620002e7906200084c565b5f1c175f1b915050919050565b5f819050919050565b5f80fd5b5f73ffffffffffffffffffffffffffffffffffffffff82169050919050565b5f6200032c8262000301565b9050919050565b6200033e8162000320565b811462000349575f80fd5b50565b5f815190506200035c8162000333565b92915050565b5f602082840312156200037a5762000379620002fd565b5b5f62000389848285016200034c565b91505092915050565b5f81519050919050565b7f4e487b71000000000000000000000000000000000000000000000000000000005f52604160045260245ffd5b7f4e487b71000000000000000000000000000000000000000000000000000000005f52602260045260245ffd5b5f60028204905060018216806200040e57607f821691505b602082108103620004245762000423620003c9565b5b50919050565b5f819050815f5260205f209050919050565b5f6020601f8301049050919050565b5f82821b905092915050565b5f60088302620004887fffffffffffffffffffffffffffffffffffffffffffffffffffffffffffffffff826200044b565b6200049486836200044b565b95508019841693508086168417925050509392505050565b5f819050919050565b5f819050919050565b5f620004de620004d8620004d284620004ac565b620004b5565b620004ac565b9050919050565b5f819050919050565b620004f983620004be565b620005116200050882620004e5565b84845462000457565b825550505050565b5f90565b6200052762000519565b62000534818484620004ee565b505050565b5b818110156200055b576200054f5f826200051d565b6001810190506200053a565b5050565b601f821115620005aa5762000574816200042a565b6200057f846200043c565b810160208510156200058f578190505b620005a76200059e856200043c565b83018262000539565b50505b505050565b5f82821c905092915050565b5f620005cc5f1984600802620005af565b1980831691505092915050565b5f620005e68383620005bb565b9150826002028217905092915050565b620006018262000392565b67ffffffffffffffff8111156200061d576200061c6200039c565b5b620006298254620003f6565b620006368282856200055f565b5f60209050601f8311600181146200066c575f841562000657578287015190505b620006638582620005d9565b865550620006d2565b601f1984166200067c866200042a565b5f5b82811015620006a5578489015182556001820191506020850194506020810190506200067e565b86831015620006c55784890151620006c1601f891682620005bb565b8355505b6001600288020188555050505b505050505050565b5f819050919050565b620006ee81620006da565b82525050565b620006ff81620004ac565b82525050565b620007108162000320565b82525050565b5f60a0820190506200072b5f830188620006e3565b6200073a6020830187620006e3565b620007496040830186620006e3565b620007586060830185620006f4565b62000767608083018462000705565b9695505050505050565b5f82825260208201905092915050565b5f5b83811015620007a057808201518184015260208101905062000783565b5f8484015250505050565b5f601f19601f8301169050919050565b5f620007c78262000392565b620007d3818562000771565b9350620007e581856020860162000781565b620007f081620007ab565b840191505092915050565b5f6020820190508181035f830152620008158184620007bb565b905092915050565b5f81519050919050565b5f819050602082019050919050565b5f620008438251620006da565b80915050919050565b5f62000858826200081d565b82620008648462000827565b9050620008718162000836565b92506020821015620008b457620008af7fffffffffffffffffffffffffffffffffffffffffffffffffffffffffffffffff836020036008026200044b565b831692505b5050919050565b60805160a05160c05160e0516101005161012051610140516143c66200090d5f395f6124af01525f61247401525f6129ef01525f6129ce01525f61268e01525f6126e401525f61270d01526143c65ff3fe608060405260043610610134575f3560e01c8063885d68a8116100aa578063a89ae4ba1161006e578063a89ae4ba14610427578063a99ef9f514610451578063bf519e961461048d578063bfb51ac9146104b5578063e461000d146104dd578063f3f437031461050557610134565b8063885d68a8146103555780638da5cb5b1461039157806390e778b1146103bb5780639cfc4b45146103e35780639da69180146103ff57610134565b80633d2f5bda116100fc5780633d2f5bda146102215780634c69c00f146102495780634ef14888146102715780635177338c146102ad57806352c18a10146102e957806384b0196e1461032557610134565b806307a52cab1461013857806316b5551d146101625780631bae0ac81461019e5780632d172edf146101e3578063372500ab1461020b575b5f80fd5b348015610143575f80fd5b5061014c610541565b6040516101599190612b8c565b60405180910390f35b34801561016d575f80fd5b5061018860048036038101906101839190612c31565b610547565b6040516101959190612c89565b60405180910390f35b3480156101a9575f80fd5b506101c460048036038101906101bf9190612ca2565b610571565b6040516101da9a99989796959493929190612d9e565b60405180910390f35b3480156101ee575f80fd5b5061020960048036038101906102049190612ca2565b6105d9565b005b348015610216575f80fd5b5061021f610857565b005b34801561022c575f80fd5b5061024760048036038101906102429190612ca2565b6109c8565b005b348015610254575f80fd5b5061026f600480360381019061026a9190612e38565b610b1b565b005b34801561027c575f80fd5b5061029760048036038101906102929190612c31565b610bed565b6040516102a49190612e72565b60405180910390f35b3480156102b8575f80fd5b506102d360048036038101906102ce9190612eae565b610c2a565b6040516102e09190612b8c565b60405180910390f35b3480156102f4575f80fd5b5061030f600480360381019061030a9190612ca2565b610db1565b60405161031c9190612fdc565b60405180910390f35b348015610330575f80fd5b50610339610e50565b60405161034c9796959493929190613177565b60405180910390f35b348015610360575f80fd5b5061037b60048036038101906103769190612c31565b610ef5565b60405161038891906131f9565b60405180910390f35b34801561039c575f80fd5b506103a5610f15565b6040516103b29190612e72565b60405180910390f35b3480156103c6575f80fd5b506103e160048036038101906103dc9190613273565b610f3a565b005b6103fd60048036038101906103f89190612ca2565b611328565b005b34801561040a575f80fd5b506104256004803603810190610420919061330e565b61160f565b005b348015610432575f80fd5b5061043b6118b4565b6040516104489190612e72565b60405180910390f35b34801561045c575f80fd5b5061047760048036038101906104729190612c31565b6118d9565b6040516104849190612c89565b60405180910390f35b348015610498575f80fd5b506104b360048036038101906104ae9190612ca2565b611903565b005b3480156104c0575f80fd5b506104db60048036038101906104d6919061330e565b611a56565b005b3480156104e8575f80fd5b5061050360048036038101906104fe91906133a1565b611cfe565b005b348015610510575f80fd5b5061052b60048036038101906105269190612e38565b612457565b6040516105389190612b8c565b60405180910390f35b600a5481565b6008602052815f5260405f20602052805f5260405f205f915091509054906101000a900460ff1681565b6004602052805f5260405f205f91509050805f015490806001015f9054906101000a900460ff1690806002015490806003015490806004015490806005015490806007015490806008015f9054906101000a900460ff169080600901549080600a015490508a565b60035f9054906101000a900473ffffffffffffffffffffffffffffffffffffffff1673ffffffffffffffffffffffffffffffffffffffff163373ffffffffffffffffffffffffffffffffffffffff1614610668576040517f08c379a000000000000000000000000000000000000000000000000000000000815260040161065f9061346f565b60405180910390fd5b5f60045f8381526020019081526020015f2090505f600581111561068f5761068e612ccd565b5b816008015f9054906101000a900460ff1660058111156106b2576106b1612ccd565b5b146106f2576040517f08c379a00000000000000000000000000000000000000000000000000000000081526004016106e9906134d7565b60405180910390fd5b6005816008015f6101000a81548160ff0219169083600581111561071957610718612ccd565b5b02179055505f816002015490505f82600a01819055505f5b82600601805490508110156107dd578160095f85600601848154811061075a576107596134f5565b5b905f5260205f20015f9054906101000a900473ffffffffffffffffffffffffffffffffffffffff1673ffffffffffffffffffffffffffffffffffffffff1673ffffffffffffffffffffffffffffffffffffffff1681526020019081526020015f205f8282546107c9919061354f565b925050819055508080600101915050610731565b50827f307d63c707523f9f1a18190e20a4ad264560dd59ffe824b21bfabcfe04e8051e600560405161080f9190613582565b60405180910390a2827f02cc15802f878888a2f2a96a5727097e894e5f3ff596211f324ae710d6b798e28360060160405161084a919061367b565b60405180910390a2505050565b5f60095f3373ffffffffffffffffffffffffffffffffffffffff1673ffffffffffffffffffffffffffffffffffffffff1681526020019081526020015f205490505f81116108da576040517f08c379a00000000000000000000000000000000000000000000000000000000081526004016108d1906136e5565b60405180910390fd5b5f60095f3373ffffffffffffffffffffffffffffffffffffffff1673ffffffffffffffffffffffffffffffffffffffff1681526020019081526020015f20819055505f3373ffffffffffffffffffffffffffffffffffffffff168260405161094190613730565b5f6040518083038185875af1925050503d805f811461097b576040519150601f19603f3d011682016040523d82523d5f602084013e610980565b606091505b50509050806109c4576040517f08c379a00000000000000000000000000000000000000000000000000000000081526004016109bb9061378e565b60405180910390fd5b5050565b5f60045f8381526020019081526020015f209050600160058111156109f0576109ef612ccd565b5b816008015f9054906101000a900460ff166005811115610a1357610a12612ccd565b5b14610a53576040517f08c379a0000000000000000000000000000000000000000000000000000000008152600401610a4a906137f6565b60405180910390fd5b8060090154421015610a9a576040517f08c379a0000000000000000000000000000000000000000000000000000000008152600401610a919061385e565b60405180910390fd5b6002816008015f6101000a81548160ff02191690836005811115610ac157610ac0612ccd565b5b0217905550806004015442610ad6919061354f565b8160090181905550817f307d63c707523f9f1a18190e20a4ad264560dd59ffe824b21bfabcfe04e8051e6002604051610b0f9190613582565b60405180910390a25050565b60035f9054906101000a900473ffffffffffffffffffffffffffffffffffffffff1673ffffffffffffffffffffffffffffffffffffffff163373ffffffffffffffffffffffffffffffffffffffff1614610baa576040517f08c379a0000000000000000000000000000000000000000000000000000000008152600401610ba19061346f565b60405180910390fd5b8060025f6101000a81548173ffffffffffffffffffffffffffffffffffffffff021916908373ffffffffffffffffffffffffffffffffffffffff16021790555050565b6007602052815f5260405f20602052805f5260405f205f915091509054906101000a900473ffffffffffffffffffffffffffffffffffffffff1681565b5f60035f9054906101000a900473ffffffffffffffffffffffffffffffffffffffff1673ffffffffffffffffffffffffffffffffffffffff163373ffffffffffffffffffffffffffffffffffffffff1614610cba576040517f08c379a0000000000000000000000000000000000000000000000000000000008152600401610cb19061346f565b60405180910390fd5b5f600a5f815480929190610ccd9061387c565b9190505590505f60045f8381526020019081526020015f20905081815f018190555087816001015f6101000a81548160ff02191690836001811115610d1557610d14612ccd565b5b02179055508681600201819055508581600301819055508481600401819055508381600501819055505f816008015f6101000a81548160ff02191690836005811115610d6457610d63612ccd565b5b0217905550817fd1d618e0efdebbca73cf13ba23bb0d440895ac1dbf0f8d7f0653337ac9c7ff7a8989604051610d9b9291906138c3565b60405180910390a2819250505095945050505050565b606060045f8381526020019081526020015f20600601805480602002602001604051908101604052809291908181526020018280548015610e4457602002820191905f5260205f20905b815f9054906101000a900473ffffffffffffffffffffffffffffffffffffffff1673ffffffffffffffffffffffffffffffffffffffff1681526020019060010190808311610dfb575b50505050509050919050565b5f6060805f805f6060610e6161246c565b610e696124a6565b46305f801b5f67ffffffffffffffff811115610e8857610e876138ea565b5b604051908082528060200260200182016040528015610eb65781602001602082028036833780820191505090505b507f0f00000000000000000000000000000000000000000000000000000000000000959493929190965096509650965096509650965090919293949596565b6005602052815f5260405f20602052805f5260405f205f91509150505481565b60035f9054906101000a900473ffffffffffffffffffffffffffffffffffffffff1681565b5f60045f8681526020019081526020015f20905060036005811115610f6257610f61612ccd565b5b816008015f9054906101000a900460ff166005811115610f8557610f84612ccd565b5b14610fc5576040517f08c379a0000000000000000000000000000000000000000000000000000000008152600401610fbc90613961565b60405180910390fd5b8060090154421061100b576040517f08c379a0000000000000000000000000000000000000000000000000000000008152600401611002906139c9565b60405180910390fd5b60065f8681526020019081526020015f205f3373ffffffffffffffffffffffffffffffffffffffff1673ffffffffffffffffffffffffffffffffffffffff1681526020019081526020015f205f9054906101000a900460ff166110a3576040517f08c379a000000000000000000000000000000000000000000000000000000000815260040161109a90613a31565b60405180910390fd5b60085f8681526020019081526020015f205f3373ffffffffffffffffffffffffffffffffffffffff1673ffffffffffffffffffffffffffffffffffffffff1681526020019081526020015f205f9054906101000a900460ff161561113c576040517f08c379a000000000000000000000000000000000000000000000000000000000815260040161113390613a99565b60405180910390fd5b5f84848460405160200161115293929190613b38565b6040516020818303038152906040528051906020012090508060055f8881526020019081526020015f205f3373ffffffffffffffffffffffffffffffffffffffff1673ffffffffffffffffffffffffffffffffffffffff1681526020019081526020015f2054146111f8576040517f08c379a00000000000000000000000000000000000000000000000000000000081526004016111ef90613bab565b60405180910390fd5b8460075f8881526020019081526020015f205f3373ffffffffffffffffffffffffffffffffffffffff1673ffffffffffffffffffffffffffffffffffffffff1681526020019081526020015f205f6101000a81548173ffffffffffffffffffffffffffffffffffffffff021916908373ffffffffffffffffffffffffffffffffffffffff160217905550600160085f8881526020019081526020015f205f3373ffffffffffffffffffffffffffffffffffffffff1673ffffffffffffffffffffffffffffffffffffffff1681526020019081526020015f205f6101000a81548160ff021916908315150217905550857fafb84e258dabd2018b90f4f4139798e0c728fc02c6c1ab615f63cdf8ce379cfc3387604051611318929190613bc9565b60405180910390a2505050505050565b5f60045f8381526020019081526020015f2090505f600581111561134f5761134e612ccd565b5b816008015f9054906101000a900460ff16600581111561137257611371612ccd565b5b146113b2576040517f08c379a00000000000000000000000000000000000000000000000000000000081526004016113a9906134d7565b60405180910390fd5b5f8060018111156113c6576113c5612ccd565b5b826001015f9054906101000a900460ff1660018111156113e9576113e8612ccd565b5b146113f55760036113f8565b60025b60ff16905080826006018054905010611446576040517f08c379a000000000000000000000000000000000000000000000000000000000815260040161143d90613c3a565b60405180910390fd5b8160020154341461148c576040517f08c379a000000000000000000000000000000000000000000000000000000000815260040161148390613ca2565b60405180910390fd5b5f5b8260060180549050811015611555573373ffffffffffffffffffffffffffffffffffffffff168360060182815481106114ca576114c96134f5565b5b905f5260205f20015f9054906101000a900473ffffffffffffffffffffffffffffffffffffffff1673ffffffffffffffffffffffffffffffffffffffff1603611548576040517f08c379a000000000000000000000000000000000000000000000000000000000815260040161153f90613d0a565b60405180910390fd5b808060010191505061148e565b508160060133908060018154018082558091505060019003905f5260205f20015f9091909190916101000a81548173ffffffffffffffffffffffffffffffffffffffff021916908373ffffffffffffffffffffffffffffffffffffffff1602179055503482600a015f8282546115cb919061354f565b92505081905550827f87969bc7faf902221a147b95ceba76e011c5efb0339a0a8ee7a2bb82d9cfbbd6336040516116029190612e72565b60405180910390a2505050565b5f60045f8481526020019081526020015f2090506002600581111561163757611636612ccd565b5b816008015f9054906101000a900460ff16600581111561165a57611659612ccd565b5b1461169a576040517f08c379a000000000000000000000000000000000000000000000000000000000815260040161169190613d72565b60405180910390fd5b806009015442106116e0576040517f08c379a00000000000000000000000000000000000000000000000000000000081526004016116d790613dda565b60405180910390fd5b6116ea83336124e1565b611729576040517f08c379a000000000000000000000000000000000000000000000000000000000815260040161172090613e42565b60405180910390fd5b60065f8481526020019081526020015f205f3373ffffffffffffffffffffffffffffffffffffffff1673ffffffffffffffffffffffffffffffffffffffff1681526020019081526020015f205f9054906101000a900460ff16156117c2576040517f08c379a00000000000000000000000000000000000000000000000000000000081526004016117b990613eaa565b60405180910390fd5b8160055f8581526020019081526020015f205f3373ffffffffffffffffffffffffffffffffffffffff1673ffffffffffffffffffffffffffffffffffffffff1681526020019081526020015f2081905550600160065f8581526020019081526020015f205f3373ffffffffffffffffffffffffffffffffffffffff1673ffffffffffffffffffffffffffffffffffffffff1681526020019081526020015f205f6101000a81548160ff021916908315150217905550827f3834a2c8ea101e1468b529270d35fbff0a12de32a5a7e5729b8b4dad6fb32c01336040516118a79190612e72565b60405180910390a2505050565b60025f9054906101000a900473ffffffffffffffffffffffffffffffffffffffff1681565b6006602052815f5260405f20602052805f5260405f205f915091509054906101000a900460ff1681565b5f60045f8381526020019081526020015f2090506002600581111561192b5761192a612ccd565b5b816008015f9054906101000a900460ff16600581111561194e5761194d612ccd565b5b1461198e576040517f08c379a000000000000000000000000000000000000000000000000000000000815260040161198590613d72565b60405180910390fd5b80600901544210156119d5576040517f08c379a00000000000000000000000000000000000000000000000000000000081526004016119cc90613f12565b60405180910390fd5b6003816008015f6101000a81548160ff021916908360058111156119fc576119fb612ccd565b5b0217905550806005015442611a11919061354f565b8160090181905550817f307d63c707523f9f1a18190e20a4ad264560dd59ffe824b21bfabcfe04e8051e6003604051611a4a9190613582565b60405180910390a25050565b60035f9054906101000a900473ffffffffffffffffffffffffffffffffffffffff1673ffffffffffffffffffffffffffffffffffffffff163373ffffffffffffffffffffffffffffffffffffffff1614611ae5576040517f08c379a0000000000000000000000000000000000000000000000000000000008152600401611adc9061346f565b60405180910390fd5b5f60045f8481526020019081526020015f2090505f6005811115611b0c57611b0b612ccd565b5b816008015f9054906101000a900460ff166005811115611b2f57611b2e612ccd565b5b14611b6f576040517f08c379a0000000000000000000000000000000000000000000000000000000008152600401611b66906134d7565b60405180910390fd5b5f801b816007015414611bb7576040517f08c379a0000000000000000000000000000000000000000000000000000000008152600401611bae90613f7a565b60405180910390fd5b5f806001811115611bcb57611bca612ccd565b5b826001015f9054906101000a900460ff166001811115611bee57611bed612ccd565b5b14611bfa576003611bfd565b60025b60ff1690508082600601805490501480611c295750600181611c1f9190613f98565b8260060180549050145b611c68576040517f08c379a0000000000000000000000000000000000000000000000000000000008152600401611c5f90614015565b60405180910390fd5b5f801b8314611c7b578282600701819055505b6001826008015f6101000a81548160ff02191690836005811115611ca257611ca1612ccd565b5b0217905550816003015442611cb7919061354f565b8260090181905550837f307d63c707523f9f1a18190e20a4ad264560dd59ffe824b21bfabcfe04e8051e6001604051611cf09190613582565b60405180910390a250505050565b5f60045f8781526020019081526020015f20905060036005811115611d2657611d25612ccd565b5b816008015f9054906101000a900460ff166005811115611d4957611d48612ccd565b5b14611d89576040517f08c379a0000000000000000000000000000000000000000000000000000000008152600401611d8090613961565b60405180910390fd5b8060090154421015611dd0576040517f08c379a0000000000000000000000000000000000000000000000000000000008152600401611dc79061407d565b60405180910390fd5b8484604051602001611de39291906140bb565b60405160208183030381529060405280519060200120816007015414611e3e576040517f08c379a0000000000000000000000000000000000000000000000000000000008152600401611e3590614130565b60405180910390fd5b5f7fde869f1920dbcac57cb36869276806c3879833e9a25327d6e79882be064a8492878787604051602001611e76949392919061414e565b60405160208183030381529060405280519060200120905060025f9054906101000a900473ffffffffffffffffffffffffffffffffffffffff1673ffffffffffffffffffffffffffffffffffffffff16611f1b611ed28361259b565b86868080601f0160208091040260200160405190810160405280939291908181526020018383808284375f81840152601f19601f820116905080830192505050505050506125b4565b73ffffffffffffffffffffffffffffffffffffffff1614611f71576040517f08c379a0000000000000000000000000000000000000000000000000000000008152600401611f68906141db565b60405180910390fd5b505f816006018054905067ffffffffffffffff811115611f9457611f936138ea565b5b604051908082528060200260200182016040528015611fc25781602001602082028036833780820191505090505b5090505f805b8360060180549050811015612183575f846006018281548110611fee57611fed6134f5565b5b905f5260205f20015f9054906101000a900473ffffffffffffffffffffffffffffffffffffffff16905060085f8b81526020019081526020015f205f8273ffffffffffffffffffffffffffffffffffffffff1673ffffffffffffffffffffffffffffffffffffffff1681526020019081526020015f205f9054906101000a900460ff16801561211357508873ffffffffffffffffffffffffffffffffffffffff1660075f8c81526020019081526020015f205f8373ffffffffffffffffffffffffffffffffffffffff1673ffffffffffffffffffffffffffffffffffffffff1681526020019081526020015f205f9054906101000a900473ffffffffffffffffffffffffffffffffffffffff1673ffffffffffffffffffffffffffffffffffffffff16145b15612175578084848151811061212c5761212b6134f5565b5b602002602001019073ffffffffffffffffffffffffffffffffffffffff16908173ffffffffffffffffffffffffffffffffffffffff168152505082806121719061387c565b9350505b508080600101915050611fc8565b505f8167ffffffffffffffff81111561219f5761219e6138ea565b5b6040519080825280602002602001820160405280156121cd5781602001602082028036833780820191505090505b5090505f5b8281101561224f578381815181106121ed576121ec6134f5565b5b6020026020010151828281518110612208576122076134f5565b5b602002602001019073ffffffffffffffffffffffffffffffffffffffff16908173ffffffffffffffffffffffffffffffffffffffff168152505080806001019150506121d2565b506004846008015f6101000a81548160ff0219169083600581111561227757612276612ccd565b5b02179055505f808311801561228f57505f85600a0154115b15612339578285600a01546122a49190614226565b90505f85600a01819055505f5b83811015612333578160095f8584815181106122d0576122cf6134f5565b5b602002602001015173ffffffffffffffffffffffffffffffffffffffff1673ffffffffffffffffffffffffffffffffffffffff1681526020019081526020015f205f82825461231f919061354f565b9250508190555080806001019150506122b1565b506123d8565b5f8314801561234b57505f85600a0154115b156123d7575f85600a015490505f86600a01819055508060095f60035f9054906101000a900473ffffffffffffffffffffffffffffffffffffffff1673ffffffffffffffffffffffffffffffffffffffff1673ffffffffffffffffffffffffffffffffffffffff1681526020019081526020015f205f8282546123ce919061354f565b92505081905550505b5b897f307d63c707523f9f1a18190e20a4ad264560dd59ffe824b21bfabcfe04e8051e60046040516124099190613582565b60405180910390a2897fab154b3616d0be1145007f0441cbd91ad8cc986c92e412edafb53375058bb7848383604051612443929190614256565b60405180910390a250505050505050505050565b6009602052805f5260405f205f915090505481565b60606124a15f7f00000000000000000000000000000000000000000000000000000000000000006125de90919063ffffffff16565b905090565b60606124dc60017f00000000000000000000000000000000000000000000000000000000000000006125de90919063ffffffff16565b905090565b5f8060045f8581526020019081526020015f2090505f5b816006018054905081101561258f578373ffffffffffffffffffffffffffffffffffffffff16826006018281548110612534576125336134f5565b5b905f5260205f20015f9054906101000a900473ffffffffffffffffffffffffffffffffffffffff1673ffffffffffffffffffffffffffffffffffffffff160361258257600192505050612595565b80806001019150506124f8565b505f9150505b92915050565b5f6125ad6125a761268b565b83612741565b9050919050565b5f805f806125c28686612781565b9250925092506125d282826127d6565b82935050505092915050565b606060ff5f1b83146125fa576125f383612938565b9050612685565b818054612606906142b1565b80601f0160208091040260200160405190810160405280929190818152602001828054612632906142b1565b801561267d5780601f106126545761010080835404028352916020019161267d565b820191905f5260205f20905b81548152906001019060200180831161266057829003601f168201915b505050505090505b92915050565b5f7f000000000000000000000000000000000000000000000000000000000000000073ffffffffffffffffffffffffffffffffffffffff163073ffffffffffffffffffffffffffffffffffffffff1614801561270657507f000000000000000000000000000000000000000000000000000000000000000046145b15612733577f0000000000000000000000000000000000000000000000000000000000000000905061273e565b61273b6129aa565b90505b90565b5f6040517f190100000000000000000000000000000000000000000000000000000000000081528360028201528260228201526042812091505092915050565b5f805f60418451036127c1575f805f602087015192506040870151915060608701515f1a90506127b388828585612a3f565b9550955095505050506127cf565b5f600285515f1b9250925092505b9250925092565b5f60038111156127e9576127e8612ccd565b5b8260038111156127fc576127fb612ccd565b5b0315612934576001600381111561281657612815612ccd565b5b82600381111561282957612828612ccd565b5b03612860576040517ff645eedf00000000000000000000000000000000000000000000000000000000815260040160405180910390fd5b6002600381111561287457612873612ccd565b5b82600381111561288757612886612ccd565b5b036128cb57805f1c6040517ffce698f70000000000000000000000000000000000000000000000000000000081526004016128c29190612b8c565b60405180910390fd5b6003808111156128de576128dd612ccd565b5b8260038111156128f1576128f0612ccd565b5b0361293357806040517fd78bce0c00000000000000000000000000000000000000000000000000000000815260040161292a91906131f9565b60405180910390fd5b5b5050565b60605f61294483612b26565b90505f602067ffffffffffffffff811115612962576129616138ea565b5b6040519080825280601f01601f1916602001820160405280156129945781602001600182028036833780820191505090505b5090508181528360208201528092505050919050565b5f7f8b73c3c69bb8fe3d512ecc4cf759cc79239f7b179b0ffacaa9a75d522b39400f7f00000000000000000000000000000000000000000000000000000000000000007f00000000000000000000000000000000000000000000000000000000000000004630604051602001612a249594939291906142e1565b60405160208183030381529060405280519060200120905090565b5f805f7f7fffffffffffffffffffffffffffffff5d576e7357a4501ddfe92f46681b20a0845f1c1115612a7b575f600385925092509250612b1c565b5f6001888888886040515f8152602001604052604051612a9e949392919061434d565b6020604051602081039080840390855afa158015612abe573d5f803e3d5ffd5b5050506020604051035190505f73ffffffffffffffffffffffffffffffffffffffff168173ffffffffffffffffffffffffffffffffffffffff1603612b0f575f60015f801b93509350935050612b1c565b805f805f1b935093509350505b9450945094915050565b5f8060ff835f1c169050601f811115612b6b576040517fb3512b0c00000000000000000000000000000000000000000000000000000000815260040160405180910390fd5b80915050919050565b5f819050919050565b612b8681612b74565b82525050565b5f602082019050612b9f5f830184612b7d565b92915050565b5f80fd5b5f80fd5b612bb681612b74565b8114612bc0575f80fd5b50565b5f81359050612bd181612bad565b92915050565b5f73ffffffffffffffffffffffffffffffffffffffff82169050919050565b5f612c0082612bd7565b9050919050565b612c1081612bf6565b8114612c1a575f80fd5b50565b5f81359050612c2b81612c07565b92915050565b5f8060408385031215612c4757612c46612ba5565b5b5f612c5485828601612bc3565b9250506020612c6585828601612c1d565b9150509250929050565b5f8115159050919050565b612c8381612c6f565b82525050565b5f602082019050612c9c5f830184612c7a565b92915050565b5f60208284031215612cb757612cb6612ba5565b5b5f612cc484828501612bc3565b91505092915050565b7f4e487b71000000000000000000000000000000000000000000000000000000005f52602160045260245ffd5b60028110612d0b57612d0a612ccd565b5b50565b5f819050612d1b82612cfa565b919050565b5f612d2a82612d0e565b9050919050565b612d3a81612d20565b82525050565b5f819050919050565b612d5281612d40565b82525050565b60068110612d6957612d68612ccd565b5b50565b5f819050612d7982612d58565b919050565b5f612d8882612d6c565b9050919050565b612d9881612d7e565b82525050565b5f61014082019050612db25f83018d612b7d565b612dbf602083018c612d31565b612dcc604083018b612b7d565b612dd9606083018a612b7d565b612de66080830189612b7d565b612df360a0830188612b7d565b612e0060c0830187612d49565b612e0d60e0830186612d8f565b612e1b610100830185612b7d565b612e29610120830184612b7d565b9b9a5050505050505050505050565b5f60208284031215612e4d57612e4c612ba5565b5b5f612e5a84828501612c1d565b91505092915050565b612e6c81612bf6565b82525050565b5f602082019050612e855f830184612e63565b92915050565b60028110612e97575f80fd5b50565b5f81359050612ea881612e8b565b92915050565b5f805f805f60a08688031215612ec757612ec6612ba5565b5b5f612ed488828901612e9a565b9550506020612ee588828901612bc3565b9450506040612ef688828901612bc3565b9350506060612f0788828901612bc3565b9250506080612f1888828901612bc3565b9150509295509295909350565b5f81519050919050565b5f82825260208201905092915050565b5f819050602082019050919050565b612f5781612bf6565b82525050565b5f612f688383612f4e565b60208301905092915050565b5f602082019050919050565b5f612f8a82612f25565b612f948185612f2f565b9350612f9f83612f3f565b805f5b83811015612fcf578151612fb68882612f5d565b9750612fc183612f74565b925050600181019050612fa2565b5085935050505092915050565b5f6020820190508181035f830152612ff48184612f80565b905092915050565b5f7fff0000000000000000000000000000000000000000000000000000000000000082169050919050565b61303081612ffc565b82525050565b5f81519050919050565b5f82825260208201905092915050565b5f5b8381101561306d578082015181840152602081019050613052565b5f8484015250505050565b5f601f19601f8301169050919050565b5f61309282613036565b61309c8185613040565b93506130ac818560208601613050565b6130b581613078565b840191505092915050565b5f81519050919050565b5f82825260208201905092915050565b5f819050602082019050919050565b6130f281612b74565b82525050565b5f61310383836130e9565b60208301905092915050565b5f602082019050919050565b5f613125826130c0565b61312f81856130ca565b935061313a836130da565b805f5b8381101561316a57815161315188826130f8565b975061315c8361310f565b92505060018101905061313d565b5085935050505092915050565b5f60e08201905061318a5f83018a613027565b818103602083015261319c8189613088565b905081810360408301526131b08188613088565b90506131bf6060830187612b7d565b6131cc6080830186612e63565b6131d960a0830185612d49565b81810360c08301526131eb818461311b565b905098975050505050505050565b5f60208201905061320c5f830184612d49565b92915050565b5f80fd5b5f80fd5b5f80fd5b5f8083601f84011261323357613232613212565b5b8235905067ffffffffffffffff8111156132505761324f613216565b5b60208301915083600182028301111561326c5761326b61321a565b5b9250929050565b5f805f806060858703121561328b5761328a612ba5565b5b5f61329887828801612bc3565b94505060206132a987828801612c1d565b935050604085013567ffffffffffffffff8111156132ca576132c9612ba9565b5b6132d68782880161321e565b925092505092959194509250565b6132ed81612d40565b81146132f7575f80fd5b50565b5f81359050613308816132e4565b92915050565b5f806040838503121561332457613323612ba5565b5b5f61333185828601612bc3565b9250506020613342858286016132fa565b9150509250929050565b5f8083601f84011261336157613360613212565b5b8235905067ffffffffffffffff81111561337e5761337d613216565b5b60208301915083600182028301111561339a5761339961321a565b5b9250929050565b5f805f805f608086880312156133ba576133b9612ba5565b5b5f6133c788828901612bc3565b95505060206133d888828901612c1d565b94505060406133e9888289016132fa565b935050606086013567ffffffffffffffff81111561340a57613409612ba9565b5b6134168882890161334c565b92509250509295509295909350565b7f4e6f74206f776e657200000000000000000000000000000000000000000000005f82015250565b5f613459600983613040565b915061346482613425565b602082019050919050565b5f6020820190508181035f8301526134868161344d565b9050919050565b7f526f6f6d206e6f7420696e2077616974696e67207374617465000000000000005f82015250565b5f6134c1601983613040565b91506134cc8261348d565b602082019050919050565b5f6020820190508181035f8301526134ee816134b5565b9050919050565b7f4e487b71000000000000000000000000000000000000000000000000000000005f52603260045260245ffd5b7f4e487b71000000000000000000000000000000000000000000000000000000005f52601160045260245ffd5b5f61355982612b74565b915061356483612b74565b925082820190508082111561357c5761357b613522565b5b92915050565b5f6020820190506135955f830184612d8f565b92915050565b5f81549050919050565b5f819050815f5260205f209050919050565b5f815f1c9050919050565b5f73ffffffffffffffffffffffffffffffffffffffff82169050919050565b5f6135f36135ee836135b7565b6135c2565b9050919050565b5f61360582546135e1565b9050919050565b5f600182019050919050565b5f6136228261359b565b61362c8185612f2f565b9350613637836135a5565b805f5b8381101561366e5761364b826135fa565b6136558882612f5d565b97506136608361360c565b92505060018101905061363a565b5085935050505092915050565b5f6020820190508181035f8301526136938184613618565b905092915050565b7f4e6f2066756e647320746f20636c61696d0000000000000000000000000000005f82015250565b5f6136cf601183613040565b91506136da8261369b565b602082019050919050565b5f6020820190508181035f8301526136fc816136c3565b9050919050565b5f81905092915050565b50565b5f61371b5f83613703565b91506137268261370d565b5f82019050919050565b5f61373a82613710565b9150819050919050565b7f5472616e73666572206661696c656400000000000000000000000000000000005f82015250565b5f613778600f83613040565b915061378382613744565b602082019050919050565b5f6020820190508181035f8301526137a58161376c565b9050919050565b7f4e6f7420696e206368617474696e6720737461746500000000000000000000005f82015250565b5f6137e0601583613040565b91506137eb826137ac565b602082019050919050565b5f6020820190508181035f83015261380d816137d4565b9050919050565b7f43686174207068617365206e6f74206f766572000000000000000000000000005f82015250565b5f613848601383613040565b915061385382613814565b602082019050919050565b5f6020820190508181035f8301526138758161383c565b9050919050565b5f61388682612b74565b91507fffffffffffffffffffffffffffffffffffffffffffffffffffffffffffffffff82036138b8576138b7613522565b5b600182019050919050565b5f6040820190506138d65f830185612d31565b6138e36020830184612b7d565b9392505050565b7f4e487b71000000000000000000000000000000000000000000000000000000005f52604160045260245ffd5b7f4e6f7420696e2072657665616c696e67207374617465000000000000000000005f82015250565b5f61394b601683613040565b915061395682613917565b602082019050919050565b5f6020820190508181035f8301526139788161393f565b9050919050565b7f52657665616c696e67207068617365206f7665720000000000000000000000005f82015250565b5f6139b3601483613040565b91506139be8261397f565b602082019050919050565b5f6020820190508181035f8301526139e0816139a7565b9050919050565b7f446964206e6f7420636f6d6d69740000000000000000000000000000000000005f82015250565b5f613a1b600e83613040565b9150613a26826139e7565b602082019050919050565b5f6020820190508181035f830152613a4881613a0f565b9050919050565b7f416c72656164792072657665616c6564000000000000000000000000000000005f82015250565b5f613a83601083613040565b9150613a8e82613a4f565b602082019050919050565b5f6020820190508181035f830152613ab081613a77565b9050919050565b5f8160601b9050919050565b5f613acd82613ab7565b9050919050565b5f613ade82613ac3565b9050919050565b613af6613af182612bf6565b613ad4565b82525050565b5f81905092915050565b828183375f83830152505050565b5f613b1f8385613afc565b9350613b2c838584613b06565b82840190509392505050565b5f613b438286613ae5565b601482019150613b54828486613b14565b9150819050949350505050565b7f496e76616c69642072657665616c0000000000000000000000000000000000005f82015250565b5f613b95600e83613040565b9150613ba082613b61565b602082019050919050565b5f6020820190508181035f830152613bc281613b89565b9050919050565b5f604082019050613bdc5f830185612e63565b613be96020830184612e63565b9392505050565b7f526f6f6d2069732066756c6c00000000000000000000000000000000000000005f82015250565b5f613c24600c83613040565b9150613c2f82613bf0565b602082019050919050565b5f6020820190508181035f830152613c5181613c18565b9050919050565b7f496e636f7272656374207374616b6520616d6f756e74000000000000000000005f82015250565b5f613c8c601683613040565b9150613c9782613c58565b602082019050919050565b5f6020820190508181035f830152613cb981613c80565b9050919050565b7f416c7265616479206a6f696e65640000000000000000000000000000000000005f82015250565b5f613cf4600e83613040565b9150613cff82613cc0565b602082019050919050565b5f6020820190508181035f830152613d2181613ce8565b9050919050565b7f4e6f7420696e20766f74696e67207374617465000000000000000000000000005f82015250565b5f613d5c601383613040565b9150613d6782613d28565b602082019050919050565b5f6020820190508181035f830152613d8981613d50565b9050919050565b7f566f74696e67207068617365206f7665720000000000000000000000000000005f82015250565b5f613dc4601183613040565b9150613dcf82613d90565b602082019050919050565b5f6020820190508181035f830152613df181613db8565b9050919050565b7f4e6f7420612068756d616e20706c6179657200000000000000000000000000005f82015250565b5f613e2c601283613040565b9150613e3782613df8565b602082019050919050565b5f6020820190508181035f830152613e5981613e20565b9050919050565b7f416c726561647920636f6d6d69747465640000000000000000000000000000005f82015250565b5f613e94601183613040565b9150613e9f82613e60565b602082019050919050565b5f6020820190508181035f830152613ec181613e88565b9050919050565b7f566f74696e67207068617365206e6f74206f76657200000000000000000000005f82015250565b5f613efc601583613040565b9150613f0782613ec8565b602082019050919050565b5f6020820190508181035f830152613f2981613ef0565b9050919050565b7f47616d6520616c726561647920737461727465640000000000000000000000005f82015250565b5f613f64601483613040565b9150613f6f82613f30565b602082019050919050565b5f6020820190508181035f830152613f9181613f58565b9050919050565b5f613fa282612b74565b9150613fad83612b74565b9250828203905081811115613fc557613fc4613522565b5b92915050565b7f496e636f727265637420706c6179657220636f756e74000000000000000000005f82015250565b5f613fff601683613040565b915061400a82613fcb565b602082019050919050565b5f6020820190508181035f83015261402c81613ff3565b9050919050565b7f52657665616c696e67207068617365206e6f74206f76657200000000000000005f82015250565b5f614067601883613040565b915061407282614033565b602082019050919050565b5f6020820190508181035f8301526140948161405b565b9050919050565b5f819050919050565b6140b56140b082612d40565b61409b565b82525050565b5f6140c68285613ae5565b6014820191506140d682846140a4565b6020820191508190509392505050565b7f436f6d6d69746d656e74206d69736d61746368000000000000000000000000005f82015250565b5f61411a601383613040565b9150614125826140e6565b602082019050919050565b5f6020820190508181035f8301526141478161410e565b9050919050565b5f6080820190506141615f830187612d49565b61416e6020830186612b7d565b61417b6040830185612e63565b6141886060830184612d49565b95945050505050565b7f496e76616c6964204f7261636c65207369676e617475726500000000000000005f82015250565b5f6141c5601883613040565b91506141d082614191565b602082019050919050565b5f6020820190508181035f8301526141f2816141b9565b9050919050565b7f4e487b71000000000000000000000000000000000000000000000000000000005f52601260045260245ffd5b5f61423082612b74565b915061423b83612b74565b92508261424b5761424a6141f9565b5b828204905092915050565b5f6040820190508181035f83015261426e8185612f80565b905061427d6020830184612b7d565b9392505050565b7f4e487b71000000000000000000000000000000000000000000000000000000005f52602260045260245ffd5b5f60028204905060018216806142c857607f821691505b6020821081036142db576142da614284565b5b50919050565b5f60a0820190506142f45f830188612d49565b6143016020830187612d49565b61430e6040830186612d49565b61431b6060830185612b7d565b6143286080830184612e63565b9695505050505050565b5f60ff82169050919050565b61434781614332565b82525050565b5f6080820190506143605f830187612d49565b61436d602083018661433e565b61437a6040830185612d49565b6143876060830184612d49565b9594505050505056fea2646970667358221220a018e6894658c07b3ee75963476b0720347e8133dab7020939c38dc15063e1e964736f6c63430008180033",
  "linkReferences": {},
  "deployedLinkReferences": {}
}